:020000040800F2
:1000000000000320213100089530000897300008D7
:10001000993000089B3000089D3000080000000067
:10002000000000000000000000000000C1240008E3
:100030009F3000080000000061250008A130000882
:100040007131000871310008713100087131000808
:1000500071310008713100087131000871310008F8
:1000600071310008713100087131000871310008E8
:1000700071310008713100087131000871310008D8
:1000800071310008713100087131000871310008C8
:1000900071310008713100087131000871310008B8
:1000A00071310008713100087131000871310008A8
:1000B0007131000871310008713100087131000898
:1000C0007131000871310008713100087131000888
:1000D000713100087131000871310008A930000841
:1000E000B930000871310008713100087131000821
:1000F0007131000871310008713100087131000858
:100100007131000871310008713100087131000847
:10011000713100087131000871310008C5300008E4
:100120007131000871310008713100087131000827
:100130007131000871310008713100087131000817
:100140007131000871310008713100087131000807
:1001500071310008713100087131000871310008F7
:1001600071310008713100087131000871310008E7
:100170007131000871310008713100080000000081
:1001800071310008713100087131000871310008C7
:1001900071310008713100087131000871310008B7
:0C01A00071310008713100087131000855
:1001B00010B5054C237833B9044B13B10448AFF3A1
:1001C00000800123237010BD1000002000000000FB
:1001D000BC31000808B5034B1BB103490348AFF31A
:1001E000008008BD0000000014000020BC310008A1
:1001F00053B94AB9002908BF00281CBF4FF0FF318E
:100200004FF0FF3000F072B9ADF1080C6DE904CE8B
:1002100000F006F8DDF804E0DDE9022304B07047E1
:100220002DE9F047089E04468846002B4BD18A42B0
:10023000154667D9B2FA82F24AB1C2F1200701FA33
:1002400002F320FA07F7954047EA030894404FEA83
:10025000154E230CB8FBFEF71FFA85FC0EFB178822
:1002600043EA084307FB0CF1994209D9EB1807F15F
:10027000FF3080F01B81994240F21881023F2B44ED
:100280005B1AA4B2B3FBFEF00EFB103344EA034446
:1002900000FB0CFCA44509D92C1900F1FF3380F0B8
:1002A0000781A44540F2048102382C4440EA07400B
:1002B000A4EB0C0400271EB1D4400023C6E9004380
:1002C0003946BDE8F0878B4209D9002E00F0EB805B
:1002D0000027C6E9000138463946BDE8F087B3FA81
:1002E00083F7002F47D18B4202D3824200F2FA807B
:1002F000841A61EB030301209846002EE0D0C6E982
:100300000048DDE702B9FFDEB2FA82F2002A40F0CF
:100310008F80491B4FEA154E1FFA85F80127B1FB64
:10032000FEFC230C0EFB1C1143EA014308FB0CF1FD
:10033000994207D9EB180CF1FF3002D2994200F232
:10034000CD808446591AA3B2B1FBFEF00EFB101407
:1003500043EA044408FB00F8A04507D92C1900F132
:10036000FF3302D2A04500F2B6801846A4EB080481
:1003700040EA0C409FE7C7F1200CBB4022FA0CFE7C
:100380004EEA030E01FA07F420FA0CF521FA0CF3F9
:100390004FEA1E482543B3FBF8F92C0C08FB193330
:1003A0001FFA8EFA44EA034309FB0AF49C4202FA5C
:1003B00007F200FA07F10BD91EEB030309F1FF3036
:1003C00080F087809C4240F28480A9F10209734446
:1003D0001B1BADB2B3FBF8F008FB103345EA034436
:1003E00000FB0AFAA24508D91EEB040400F1FF3312
:1003F0006BD2A24569D90238744440EA0940A0FB97
:100400000289A4EB0A044C45C2464B4654D351D052
:10041000002E69D0B1EB0A0564EB030404FA0CFC6E
:10042000FD40FC404CEA0505C6E90054002747E7BB
:10043000C2F1200320FA03F7954001FA02F021FAF5
:1004400003F34FEA154E3843010CB3FBFEF71FFAD6
:1004500085F80EFB173341EA034107FB08F38B4293
:1004600004FA02F407D9691807F1FF3C2FD28B4236
:100470002DD9023F2944CB1A81B2B3FBFEF00EFB0B
:10048000103341EA034100FB08F38B4207D9691896
:1004900000F1FF3C17D28B4215D902382944C91A02
:1004A00040EA07473BE73746304609E70746E7E6B5
:1004B0001846FBE64145ABD2B8EB020A69EB0E02E7
:1004C00001381346A4E76046E9E7184695E7674612
:1004D000D1E781467CE702382C4447E7ACF1020CB7
:1004E0002B442FE7384608E73746E9E6704700BF58
:1004F00008B50B4B1A6842F400721A601A6842F48D
:1005000080621A601A6842F480721A60032000F058
:100510001BF8002002F080FD02F092FC002008BDD4
:10052000003C0240034A1168034B1B780B441360E4
:10053000704700BF783D002000000020014B186884
:10054000704700BF783D0020074AD36823F4E0637A
:100550001B041B0C000200F4E060184340F0BF6075
:1005600040F40030D060704700ED00E030B4174B2D
:10057000DB68C3F30223C3F10704042C28BF04245F
:100580001D1D062D18D9033B4FF0FF3505FA04F465
:1005900021EA0401994005FA03F322EA030319430F
:1005A00000280BDB0901C9B200F1604000F5614091
:1005B00080F8001330BC70470023E5E700F00F001F
:1005C0000901C9B2024B1954F4E700BF00ED00E085
:1005D00014ED00E000F01F02400901239340024A9D
:1005E00042F82030704700BF00E100E00138B0F170
:1005F000807F0AD2064B5860064AF02182F8231009
:100600000020986007221A6070470120704700BFE1
:1006100010E000E000ED00E0042805D0054A136872
:1006200023F0040313607047024A136843F0040385
:100630001360704710E000E090F83530DBB2022B19
:1006400003D08023436501207047052380F83530AF
:100650000268136823F00103136000207047000054
:1006600000230F2B00F2E380F0B482B039E00922BE
:1006700000E00022B2403A4302346D4E46F8242096
:100680006C4A1468EA4302EA04064F6817F4803F94
:1006900001D045EA0406674C2660646802EA040655
:1006A0004F6817F4003F01D045EA0406614C6660CC
:1006B000A46802EA04064F6817F4801F01D045EAD7
:1006C00004065C4CA660E46822404E6816F4001FE5
:1006D00001D045EA0402574CE26001330F2B00F2CF
:1006E000A38001229A400C6804EA0205AA42F4D1D0
:1006F0004C68022C01D0122C10D1DE08083650F8BC
:1007000026C003F00704A7000F24BC402CEA040C09
:100710000C69BC4044EA0C0440F8264004685F00C1
:100720000326BE40F64306EA040C4C6804F00304BA
:10073000BC4044EA0C0404604C6804F1FF3CBCF18A
:10074000010F03D9112C01D0122C10D1846806EAB4
:10075000040CCC68BC4044EA0C048460446824EA7D
:1007600002024C68C4F300149C4014434460C26805
:1007700016408A68BA403243C2604A6812F0805F0D
:10078000ABD0002201922C4A546C44F4804454644F
:10079000526C02F480420192019A9C08A61C244AE1
:1007A00052F8267003F0030296000F22B24027EAA7
:1007B0000207224A90423FF45CAF02F58062904209
:1007C00022D002F58062904220D002F580629042F1
:1007D0001ED002F5806290421CD002F580629042E9
:1007E0001AD002F58062904218D002F580629042E1
:1007F00016D002F58062904214D002F580629042D9
:100800003FF435AF0A2235E7012233E7022231E710
:1008100003222FE704222DE705222BE7062229E7F2
:10082000072227E7082225E702B0F0BC704770478F
:1008300000380140003C0140003802400000024006
:1008400012B90904816170478161704770470000E7
:1008500008B5054B5B69034200D108BD024B5861E6
:10086000FFF7F4FFF9E700BF003C014008B338B5DB
:10087000044603684CF6CC421A60036845F25552B0
:100880001A60036842685A60036882689A60FFF7DA
:1008900055FE05462368DA6832B1FFF74FFE401B6C
:1008A0003028F7D9032003E04AF6AA221A60002074
:1008B00038BD01207047000010B582B000230193BD
:1008C000194B1A6C42F080521A641B6C03F080536F
:1008D0000193019B154B01221A60FFF72FFE04467E
:1008E000134B5B6813F4803F08D1FFF727FE001B12
:1008F000B0F57A7FF4D9032002B010BD0D4B012270
:100900001A60FFF71BFE0446094B5B6813F4003FB7
:1009100007D1FFF713FE001BB0F57A7FF4D903204F
:10092000EAE70020E8E700BF0038024040000E423E
:100930000070004044000E42002800F0BB8170B5FA
:1009400082B00446036813F0010F3BD0A74B9B68AD
:1009500003F00C03042B2CD0A44B9B6803F00C0376
:10096000082B21D06368B3F5803F4FD0B3F5A02F9B
:1009700052D09E4B1A6822F480321A601A6822F410
:1009800080221A606368002B50D0FFF7D7FD054620
:10099000964B1B6813F4003F14D1FFF7CFFD401BAB
:1009A0006428F5D903208AE1904B5B6813F4800F2B
:1009B000D8D08E4B1B6813F4003F03D06368002B24
:1009C00000F07A81236813F0020F55D0874B9B68A3
:1009D00013F00C0F3ED0854B9B6803F00C03082BE3
:1009E00033D0E368002B68D0814B01221A60FFF7F7
:1009F000A5FD05467D4B1B6813F0020F54D1FFF790
:100A00009DFD401B0228F5D9032058E1774A136861
:100A100043F480331360B5E7744B1A6842F48022C4
:100A20001A601A6842F480321A60ABE7FFF786FD5D
:100A300005466E4B1B6813F4003FC3D0FFF77EFDE5
:100A4000401B6428F5D9032039E1684B5B6813F437
:100A5000800FC6D1654B1B6813F0020F04D0E3680A
:100A6000012B01D001202AE1604A136823F0F8032A
:100A7000216943EAC1031360236813F0080F40D0D3
:100A8000636963B35B4B01221A60FFF757FD0546AC
:100A9000564B5B6F13F0020F33D1FFF74FFD401B36
:100AA0000228F5D903200AE1504A136823F0F8031D
:100AB000216943EAC1031360DEE74D4B00221A604F
:100AC000FFF73CFD0546494B1B6813F0020FD3D0DE
:100AD000FFF734FD401B0228F5D90320EFE0454B1A
:100AE00000221A60FFF72AFD0546404B5B6F13F0AA
:100AF000020F06D0FFF722FD401B0228F5D9032084
:100B0000DDE0236813F0040F79D0384B1B6C13F031
:100B1000805F33D100230193344B1A6C42F0805232
:100B20001A641B6C03F080530193019B0125324B27
:100B30001B6813F4807F23D0A368012B34D0052BCE
:100B400038D02A4B1A6F22F001021A671A6F22F06E
:100B500004021A67A368002B36D0FFF7EFFC0646A5
:100B6000224B1B6F13F0020F48D1FFF7E7FC801BED
:100B700041F288339842F3D90320A0E00025D6E75C
:100B80001D4A136843F480731360FFF7D7FC0646D1
:100B9000194B1B6813F4807FCED1FFF7CFFC801B6D
:100BA0000228F5D903208AE0104A136F43F00103AD
:100BB0001367CFE70D4B1A6F42F004021A671A6FE2
:100BC00042F001021A67C5E7FFF7B8FC0646074B7B
:100BD0001B6F13F0020F11D0FFF7B0FC801B41F226
:100BE00088339842F3D9032069E000BF00380240FF
:100BF00000004742800E474200700040E5B9A369FB
:100C0000002B5BD0304A926802F00C02082A58D0C0
:100C1000022B17D02D4B00221A60FFF78FFC0446E1
:100C2000294B1B6813F0007F42D0FFF787FC001BA5
:100C30000228F5D9032042E0234A136C23F08053A5
:100C40001364DCE7214B00221A60FFF777FC0546AE
:100C50001D4B1B6813F0007F06D0FFF76FFC401B95
:100C60000228F5D903202AE0E369226A1343626A65
:100C700043EA8213A26A5208013A43EA0243E26A53
:100C800043EA0263104A5360104B01221A60FFF7D7
:100C900055FC04460C4B1B6813F0007F06D1FFF790
:100CA0004DFC001B0228F5D9032008E0002006E0D7
:100CB000002004E001207047012000E0002002B085
:100CC00070BD0120FBE700BF0038024060004742D2
:100CD000264B9B6803F00C03042B44D0082B01D057
:100CE000234870472DE9F04B204B5A6802F03F0231
:100CF0005B6813F4800F13D01C4B5968C1F3881143
:100D000000231C48A1FB0001FFF772FA174B5B6838
:100D1000C3F3014301335B00B0FBF3F0BDE8F08B9C
:100D2000124B5B68C3F388131E4600275C01002545
:100D3000E41A65EB0705A90141EA9461A001001BD3
:100D400061EB0501CB0043EA5073C400A01943EBEB
:100D500007018B0243EA9053840220461946002380
:100D6000FFF746FAD2E70348704700BF0038024059
:100D70000024F40040787D01002800F09D8070B5CB
:100D800004464F4B1B6803F00F038B4209D2CBB2D2
:100D90004B4A1370136803F00F038B4201D00120FC
:100DA00070BD236813F0020F17D013F0040F04D0A6
:100DB000444A936843F4E0539360236813F0080FA8
:100DC00004D0404A936843F4604393603D4A93687B
:100DD00023F0F003A068034393600D46236813F0EB
:100DE000010F32D06368012B21D09A1E012A25D928
:100DF000344A126812F0020F60D032498A6822F039
:100E0000030213438B60FFF799FB06462D4B9B684B
:100E100003F00C036268B3EB820F16D0FFF78EFB72
:100E2000801B41F288339842F0D90320B8E7254A65
:100E3000126812F4003FE0D10120B1E7214A1268A4
:100E400012F0007FD9D10120AAE71D4B1B6803F0E7
:100E50000F03AB4209D9EAB2194B1A701B6803F0B1
:100E60000F03AB4201D001209AE7236813F0040F6F
:100E700006D0144A936823F4E053E1680B4393606F
:100E8000236813F0080F07D00E4A936823F46043D9
:100E9000216943EAC1039360FFF71AFF094B9B687E
:100EA000C3F30313084AD35CD840084B18600020F2
:100EB00002F0B2F8002073E70120704701206FE7CD
:100EC000003C024000380240E83100080C000020DD
:100ED000014B1868704700BF0C00002008B5FFF7F1
:100EE000F7FF044B9B68C3F38223034AD35CD840CB
:100EF00008BD00BF00380240F831000808B5FFF710
:100F0000E7FF044B9B68C3F34233034AD35CD840EA
:100F100008BD00BF00380240F83100080F2303600D
:100F20000B4B9A6802F0030242609A6802F0F002EA
:100F300082609A6802F4E052C2609B68DB0803F4A6
:100F4000E0530361034B1B6803F00F030B60704712
:100F500000380240003C024070B4036A23F00103F1
:100F60000362036A4268846924F073040D6845EAE9
:100F7000040623F002048B6823430C4DA84202D0E0
:100F80000B4CA0420BD123F00803CD682B4323F078
:100F9000040322F440724D6915438A692A43426072
:100FA00086614A684263036270BC7047000001407A
:100FB0000004014030B4036A23F480730362036ABF
:100FC0004268C46924F073040D682C4323F4007351
:100FD0008D6843EA05230E4DA84203D005F58065D0
:100FE000A8420ED123F40063CD6843EA052323F41D
:100FF000806322F440524D6942EA05128D6942EA4B
:1010000005124260C4614A68C263036230BC704723
:101010000000014030B4036A23F480530362036A82
:101020004468C26922F4E6420D6842EA052223F4CC
:1010300000538D6843EA0533094DA84203D005F5F6
:101040008065A84204D124F480444D6944EA8514A3
:101050004460C2614A680264036230BC704700BFEA
:101060000000014010B4036A046A24F00104046221
:10107000846924F0F00444EA021223F00A030B43CB
:10108000826103625DF8044B704710B4036A23F079
:10109000100303628469036A24F4704444EA023250
:1010A00023F0A00343EA0113826103625DF8044B5D
:1010B0007047836823F0700341F007011943816092
:1010C000704710B4846824F47F4442EA03230B433E
:1010D000234383605DF8044B70470268D36843F094
:1010E0000103D3600268136843F00103136000201A
:1010F000704790F83830012B7DD010B5044601239D
:1011000080F83830022380F839300268936823F47D
:101110007F4323F0770393600B68402B57D010D99F
:10112000702B3ED01FD8502B47D0602B32D1CA68CD
:1011300049680068FFF7A9FF60212068FFF7B9FF41
:1011400028E0102B4DD008D9202B4FD0302B21D1A7
:1011500030210068FFF7ADFF1CE0DBB9002100681B
:10116000FFF7A7FF16E0B3F5805F0ED0B3F5005F81
:1011700010D1CB684A6889680068FFF7A2FF22682F
:10118000936843F48043936004E00268936823F01B
:1011900007039360012384F83930002084F8380075
:1011A00010BDCB684A6889680068FFF78AFF22682B
:1011B000936843F077039360ECE7CA684968006876
:1011C000FFF750FF50212068FFF773FFE2E7CA687E
:1011D00049680068FFF746FF40212068FFF769FF74
:1011E000D8E710210068FFF764FFD3E720210068EB
:1011F000FFF75FFFCEE702207047704770477047E8
:10120000704710B5044603681A6912F0020F11D036
:10121000DA6812F0020F0DD06FF002021A6101239A
:10122000037603689B6913F0030F70D0FFF7E6FFA6
:101230000023237623681A6912F0040F12D0DA68AB
:1012400012F0040F0ED06FF004021A61022323760D
:1012500023689B6913F4407F5FD02046FFF7CEFFE1
:101260000023237623681A6912F0080F12D0DA6877
:1012700012F0080F0ED06FF008021A6104232376D3
:101280002368DB6913F0030F4ED02046FFF7B6FF4B
:101290000023237623681A6912F0100F12D0DA683F
:1012A00012F0100F0ED06FF010021A61082323768F
:1012B0002368DB6913F4407F3DD02046FFF79EFF93
:1012C0000023237623681A6912F0010F03D0DA682D
:1012D00012F0010F36D123681A6912F0800F03D083
:1012E000DA6812F0800F34D123681A6912F0400FC7
:1012F00003D0DA6812F0400F32D123681A6912F075
:10130000200F03D0DA6812F0200F30D110BDFFF7A4
:1013100074FF2046FFF773FF8AE72046FFF76DFF53
:101320002046FFF76CFF9BE72046FFF766FF20464D
:10133000FFF765FFACE72046FFF75FFF2046FFF7AA
:101340005EFFBDE76FF001021A61204601F090FBDD
:10135000C1E76FF080021A61204600F097F9C3E7F9
:101360006FF040021A612046FFF74AFFC5E76FF0B1
:1013700020021A61204600F088F9C7E703682E4A68
:10138000904212D0B0F1804F0FD0A2F57C42904233
:101390000BD002F58062904207D002F58062904245
:1013A00003D002F57842904203D123F070034A68DB
:1013B0001343214A90422AD0B0F1804F27D0A2F5A2
:1013C0007C42904223D002F5806290421FD002F509
:1013D000806290421BD002F57842904217D002F50D
:1013E0007052904213D002F5806290420FD002F505
:1013F000806290420BD0A2F59832904207D002F55D
:101400008062904203D002F58062904203D123F4BF
:101410004073CA68134303608B68C3620B688362BE
:10142000054B984203D003F58063984201D10B69C4
:10143000036301234361704700000140A8B110B568
:10144000044690F839305BB1022384F83930211D0D
:101450002068FFF793FF012384F83930002010BD86
:1014600080F8383001F05EFDEEE701207047A8B14A
:1014700010B5044690F839305BB1022384F8393056
:10148000211D2068FFF77AFF012384F839300020FE
:1014900010BD80F8383001F01DFDEEE701207047E7
:1014A00030B4036A23F010030362036A446882695C
:1014B00022F4E6420D6842EA052223F020038D68FB
:1014C00043EA05130E4DA84203D005F58065A842F6
:1014D0000ED123F08003CD6843EA051323F04003C7
:1014E00024F440644D6944EA85048D6944EA850426
:1014F000446082614A688263036230BC704700BF07
:101500000000014038B590F83830012B66D00D4608
:101510000446012380F83830022380F839300C2A41
:101520001AD8DFE802F00719191920191919341906
:10153000191947000068FFF70FFD2268936943F00F
:10154000080393612268936923F00403936122687E
:10155000936929690B439361012384F83930002092
:1015600084F8380038BD0068FFF79AFF2268936955
:1015700043F4006393612268936923F48063936169
:1015800022689369296943EA01239361E4E70068CB
:10159000FFF710FD2268D36943F00803D361226886
:1015A000D36923F00403D3612268D36929690B430B
:1015B000D361D1E70068FFF72DFD2268D36943F4BA
:1015C0000063D3612268D36923F48063D361226806
:1015D000D369296943EA0123D361BDE70220C1E74A
:1015E00090F83830012B22D030B4012280F8382016
:1015F000022380F839300468636823F07003636065
:10160000046863680D682B4363600468A36823F073
:101610008003A3600468A36849680B43A36080F853
:101620003920002380F83830184630BC704702203B
:10163000704790F83830012B25D0012380F83830DE
:10164000CB6823F440738A68134323F480634A68A9
:10165000134323F400630A68134323F480530A6995
:10166000134323F400534A69134323F480438A69E4
:10167000134323F40043134302685364002380F8A8
:10168000383018467047022070477047704702682C
:10169000D36823F49073D3600268536923F0010385
:1016A0005361202380F83A30704790F83930DBB22C
:1016B000212B2AD18368B3F5805F16D0036A5A1CA8
:1016C00002621A7803685A60C38C013B9BB2C384E0
:1016D000EBB90268D36823F08003D3600268D36853
:1016E00043F04003D36000207047036A1B88026800
:1016F000C3F30803536003691BB9036A023303622F
:10170000E2E7036A01330362DEE70220704700204C
:10171000704700002DE9F843044601680A6922F485
:101720004052C36813430B610168CA6822F4164231
:1017300022F00C0283680069034360690343E06997
:1017400003431343CB6021684A6922F44072A369C2
:1017500013434B61E369B3F5004F60D02368B84A87
:10176000934200F0148102F58062934200F00F81F1
:10177000FFF7B4FB00EB800000EB80006568AD0074
:10178000B0FBF5F5AF4FA7FB05356D092E01FFF74F
:10179000A5FB00EB800000EB80006568AD00B0FBAE
:1017A000F5F9FFF79BFB00EB800000EB800065681C
:1017B000AD00B0FBF5F5A7FB05356D094FF06408EA
:1017C00008FB15952D013235A7FB05356D0905F090
:1017D000F0053544FFF782FB00EB800000EB800052
:1017E0006668B600B0FBF6F6FFF778FB00EB80000A
:1017F00000EB800063689B00B0FBF3F0A7FB0030B8
:10180000400908FB10684FEA081808F13208A7FBE6
:101810000837C7F3431723682F449F600DE12368FF
:10182000874A93425BD002F58062934257D0FFF71C
:1018300055FB00EB800000EB800065686D00B0FB9D
:10184000F5F5804FA7FB05356D092E01FFF746FB27
:1018500000EB800000EB800065686D00B0FBF5F9DF
:10186000FFF73CFB00EB800000EB800065686D003B
:10187000B0FBF5F5A7FB05356D094FF0640808FBD3
:101880001595ED003235A7FB05356D096D0005F4A2
:10189000F8753544FFF722FB00EB800000EB800079
:1018A00066687600B0FBF6F6FFF718FB00EB8000E9
:1018B00000EB800063685B00B0FBF3F3A7FB03233E
:1018C0005B0908FB13684FEAC80808F13208A7FB58
:1018D0000837C7F3421723682F449F60ADE0FFF736
:1018E0000DFB00EB800000EB800065686D00B0FB35
:1018F000F5F5544FA7FB05356D092E01FFF7FEFAEC
:1019000000EB800000EB800065686D00B0FBF5F92E
:10191000FFF7F4FA00EB800000EB800065686D00D3
:10192000B0FBF5F5A7FB05356D094FF0640808FB22
:101930001595ED003235A7FB05356D096D0005F4F1
:10194000F8753544FFF7DAFA00EB800000EB800011
:1019500066687600B0FBF6F6FFF7D0FA00EB800081
:1019600000EB800063685B00B0FBF3F3A7FB03238D
:101970005B0908FB13684FEAC80808F13208A7FBA7
:101980000837C7F3421723682F449F6055E0FFF7DD
:10199000B5FA00EB800000EB80006568AD00B0FB9D
:1019A000F5F5284FA7FB05356D092E01FFF7A6FABF
:1019B00000EB800000EB80006568AD00B0FBF5F93E
:1019C000FFF79CFA00EB800000EB80006568AD003B
:1019D000B0FBF5F5A7FB05356D094FF0640808FB72
:1019E00015952D013235A7FB05356D0905F0F0057C
:1019F0003544FFF783FA00EB800000EB8000666857
:101A0000B600B0FBF6F6FFF779FA00EB800000EBCA
:101A1000800063689B00B0FBF3F0A7FB0030400937
:101A200008FB10684FEA081808F13208A7FB0837CE
:101A3000C7F3431723682F449F60BDE8F88300BFB6
:101A4000001001401F85EB5158B310B5044690F8C3
:101A500039300BB3242384F839302268D36823F457
:101A60000053D3602046FFF755FE2268136923F424
:101A7000904313612268536923F02A03536122685B
:101A8000D36843F40053D3600020E063202384F83C
:101A9000393084F83A3010BD80F8383001F08AFAD5
:101AA000D8E701207047704708B50168CB6823F07C
:101AB0004003CB60202380F83930FFF7F4FF00208B
:101AC00008BD704708B590F83A30DBB2222B40D100
:101AD0008368B3F5805F0ED0036903BB03685A685F
:101AE000836A591C81621A70C38D013B9BB2C38506
:101AF000F3B100202EE0826A036943B903685B6892
:101B0000C3F308031380836A02338362ECE703683C
:101B10005B68DBB21380836A01338362E4E70368A6
:101B20005B68826A511C816203F07F031370DBE7FC
:101B30000268D36823F49073D3600268536923F07A
:101B400001035361202380F83A30FFF7BAFF0020E9
:101B500000E0022008BD704710B504460268136813
:101B6000D168526913F00F0005D113F0200F02D095
:101B700011F0200F53D1002867D012F0010202D1DA
:101B800011F4907F61D013F0010F06D011F4807F23
:101B900003D0E06B40F00100E06313F0040F04D0C9
:101BA0001AB1E06B40F00200E06313F0020F04D0C2
:101BB0001AB1E06B40F00400E06313F0080F04D0AA
:101BC0001AB1E26B42F00802E263E26B002A48D0ED
:101BD00013F0200F02D011F0200F24D123685B698D
:101BE00003F04003E26B12F0080F00D13BB3204634
:101BF000FFF74DFD23685A6912F0400F1BD05A6958
:101C000022F040025A61636B8BB11A4A1A65606B0D
:101C1000FEF712FD28B3606B036D984721E0204664
:101C2000FFF750FF1DE02046FFF74CFFD6E72046A8
:101C3000FFF791FF15E02046FFF78DFF11E02046EA
:101C4000FFF789FF0023E3630BE013F0800F02D05E
:101C500011F0800F06D113F0400F02D011F0400FA9
:101C600004D110BD2046FFF720FDFAE72046FFF71C
:101C70001BFFF6E7791C000808B5806B0023C385BD
:101C8000C384FFF768FF08BD842801D00330704784
:101C90000020704708B500F0C9F9002008BDF0B574
:101CA00085B00F46446805680669B0F90800FFF77B
:101CB000EBFF03AB019300903B46B2B229462046AE
:101CC00000F082F9012802D1039805B0F0BD002090
:101CD000FBE708B5034600B90123184600F0E8FA0F
:101CE000002008BD08B500F08FFB012801D000F0EE
:101CF00069FC08BD00F1080343604FF0FF328260C9
:101D0000C3600361002303607047002303617047D1
:101D100043684B609A688A609A685160996008616C
:101D2000036801330360704730B40D68B5F1FF3FBD
:101D300002D000F1080202E0026904E01A4653688A
:101D40001C68AC42FAD953684B6099608A60516054
:101D5000086103680133036030BC7047036942685F
:101D6000816891608268416851605A68824205D0FA
:101D700000220261186801381860704782685A6052
:101D8000F6E70000074B9B6A1B6833B1054B9A6A64
:101D9000D268D2685268DA627047024B4FF0FF3265
:101DA000DA6270472C00002010B50446006B00F08A
:101DB00073FD204600F070FD10BD2DE9F047804610
:101DC0009946089D099F0A9C266B02F18042013AC0
:101DD00006EB820626F0070600230F2B07D8C85C07
:101DE000E21882F83400CA5C0AB10133F5E7002337
:101DF00084F84330062D00D90625E56265644FF06E
:101E0000000AC4F848A0201DFFF77FFF04F1180066
:101E1000FFF77BFF2461C5F10705A5616462C4F883
:101E20004CA084F850A04A464146304600F030FBB2
:101E3000206007B13C60BDE8F087000070B5002469
:101E400007E004EB8402930010481844FFF752FFA8
:101E50000134062CF5D90E4C04F1BC063046FFF7D0
:101E600049FF04F1D0052846FFF744FF04F11400B0
:101E7000FFF740FF04F1E400FFF73CFF2046FFF7C7
:101E800039FFA662C4F8F85070BD00BF5C000020A6
:101E90002C00002038B5054600F024FB264BD3F873
:101EA000FC200132C3F8FC20D3F8003173B1224B7F
:101EB000D3F804318BB9204BD3F80031DA6AEB6ADE
:101EC0009A420AD81C4BC3F8005106E01A4BC3F8DB
:101ED0000051D3F8FC30012B2AD0174CD4F808312C
:101EE0000133C4F80831EB6A01229A40D4F80C118E
:101EF0000A43C4F80C2104F1300003EB83039A0079
:101F0000291D1044FFF704FF00F00EFBD4F8043144
:101F10006BB1D4F80031DA6AEB6A9A4207D2074B08
:101F20004FF080521A60BFF34F8FBFF36F8F38BDF1
:101F3000FFF784FFD1E700BF2C00002004ED00E094
:101F400070B504460E461F4BD3F81051D3F800016C
:101F50000430FFF703FF60B91A4BD3F80021D16AB0
:101F6000012202FA01F1D3F80C2122EA0102C3F89E
:101F70000C21B4F1FF3F12D02C44124BD3F80031A6
:101F80005C60A54214D80F4DA86AD5F80011043141
:101F9000FFF7CAFEEB6AA34212D9EC6210E0002EF2
:101FA000EAD00848D0F800110431FFF7B1FE07E08D
:101FB000044BD3F8F800D3F800110431FFF7B4FE56
:101FC00070BD00BF2C0000202DE9F04385B007460E
:101FD000884615469946900000F0E4FBF8B10646A5
:101FE000542000F0DFFB0446A8B10663D4B10023FF
:101FF000039302940D9B01930C9B00934B462A463E
:1020000041463846FFF7D9FE2046FFF743FF01203F
:1020100005B0BDE8F083304600F03EFCE6E74FF047
:10202000FF30F5E74FF0FF30F2E7000000B583B076
:10203000174B019300230093802216491648FFF79F
:10204000C3FF012805D0B0F1FF3F17D003B05DF802
:1020500004FB4FF0500383F31188BFF36F8FBFF37E
:102060004F8F0E4B4FF0FF32DA620122C3F804218A
:102070000022C3F8102100F0D1FAE7E74FF0500337
:1020800083F31188BFF36F8FBFF34F8FFEE700BF5D
:102090004801002000320008512300082C000020D5
:1020A000034AD2F818310133C2F81831704700BF23
:1020B0002C0000202DE9F041404BD3F81831002BC3
:1020C0006CD13E4BD3F810510135C3F81051CDB946
:1020D0009B6A1B6843B14FF0500383F31188BFF331
:1020E0006F8FBFF34F8FFEE7344B9A6AD3F8F81027
:1020F0009962C3F8F820D3F820210132C3F82021D7
:10210000FFF740FE2D4BDB6AAB423DD900242B4A42
:10211000D2F80031DB6A03EB830399000A44136BA6
:10212000012B42D9012440E00124244B9B6A1B6807
:1021300063B3224B9B6ADB68DE6873689D422AD3D7
:1021400006F104084046FFF709FEB36A1BB106F129
:102150001800FFF703FEF36A01229A40174FD7F8E1
:102160000C110A43C7F80C2107F1300003EB83037D
:102170009A0041461044FFF7CBFDF26AD7F80031D0
:10218000DB6A9A42D0D2D0E70024CEE70B4B4FF067
:10219000FF32DA62BBE7094AD362B8E7074AD2F8EE
:1021A00024310133C2F824310024044BD3F8283100
:1021B00003B101242046BDE8F08100BF2C000020BF
:1021C000394BD3F8183143B94FF0500383F31188DA
:1021D000BFF36F8FBFF34F8FFEE770B500F082F94A
:1021E000314BD3F81821013AC3F81821D3F818312C
:1021F000002B54D12C4BD3F8FC3023B9002400F031
:1022000093F9204670BD0024274B5B692BB3264D04
:102210002B6ADC6804F11800FFF7A0FD261D30468C
:10222000FFF79CFDE36A01229A40D5F80C110A439E
:10223000C5F80C2105F1300003EB83039A00314609
:102240001044FFF765FDE26AD5F80031DB6A9A4277
:10225000DAD30122C5F82821D6E70CB1FFF792FDA9
:10226000114BD3F8244164B1FFF724FF18B10E4B92
:102270000122C3F82821013CF6D10B4B0022C3F800
:102280002421094BD3F828315BB1084B4FF0805221
:102290001A60BFF34F8FBFF36F8F0124AFE70024A5
:1022A000ADE70024ABE700BF2C00002004ED00E008
:1022B00010B5B0B104460F4BD3F8183143B14FF00D
:1022C000500383F31188BFF36F8FBFF34F8FFEE787
:1022D000FFF7E6FE00212046FFF732FEFFF770FF12
:1022E00038B9054B4FF080521A60BFF34F8FBFF3E0
:1022F0006F8F10BD2C00002004ED00E038B5134BAB
:10230000D3F814310BB3FFF7CBFE104BD3F8E440F6
:10231000FFF756FF002CF2D000F0E4F80B4CD4F895
:10232000F030DD68281DFFF719FDD4F8FC30013BC3
:10233000C4F8FC30D4F81431013BC4F8143100F077
:10234000F3F82846FFF730FDD9E738BD2C00002010
:1023500008B5FFF7D3FF064B1B6B012BF9D9054BD3
:102360004FF080521A60BFF34F8FBFF36F8FF0E7CB
:102370002C00002004ED00E0224BD3F8183123B1EB
:10238000204B0122C3F8282170471E4A0023C2F8BF
:102390002831D2F80C31B3FA83F3DBB2C3F11F0357
:1023A00003EB830081000A44126B42B94FF05003E3
:1023B00083F31188BFF36F8FBFF34F8FFEE710B425
:1023C000104A9900CC18A0001044446B6468446320
:1023D0003032194488000830024494420BD0094935
:1023E00003EB83039A000A44536BDB68C1F80031A6
:1023F0005DF8044B704761680248142202FB030237
:102400005163ECE72C000020064BD3F804313BB1BC
:10241000044BD3F818310BB10020704702207047ED
:10242000012070472C0000200B4B1B68B3F1FF3FCD
:1024300008D04FF0500383F31188BFF36F8FBFF3C1
:102440004F8FFEE74FF0500383F31188BFF36F8F78
:10245000BFF34F8FFEE700BF08000020064800686A
:10246000006880F3088862B661B6BFF34F8FBFF390
:102470006F8F00DF00BF000008ED00E0DFF80C0008
:10248000016841F4700101607047000088ED00E0D0
:102490004FF0807340F8043C21F0010140F8081C23
:1024A000054B40F80C3C40F8202C6FF0020340F83C
:1024B000243C4438704700BF292400080000000075
:1024C000074B19680868B0E8F04F80F30988BFF33C
:1024D0006F8F4FF0000080F311887047AFF30080DA
:1024E0002C0100204FF0500383F31188BFF36F8F4E
:1024F000BFF34F8F0A4A136801331360012B00D0DA
:102500007047084B1B6813F0FF0FF9D04FF05003D2
:1025100083F31188BFF36F8FBFF34F8FFEE700BFC8
:102520000800002004ED00E0094B1B6843B94FF0A0
:10253000500383F31188BFF36F8FBFF34F8FFEE714
:10254000013B034A13600BB983F31188704700BF46
:102550000800002000000000000000000000000053
:10256000EFF30980BFF36F8F154B1A681EF0100F41
:1025700008BF20ED108A20E9F04F10604DF8043DAF
:102580004FF0500080F31188BFF34F8FBFF36F8F70
:10259000FFF7F2FE4FF0000080F3118808BC1968C5
:1025A0000868B0E8F04F1EF0100F08BFB0EC108ABA
:1025B00080F30988BFF36F8F704700BFAFF30080CF
:1025C0002C01002008B54FF0500383F31188BFF3AE
:1025D0006F8FBFF34F8FFFF76DFD18B1034B4FF0B7
:1025E00080521A60002383F3118808BD04ED00E0D7
:1025F000064B1B68064AA2FB03239B09013B054AC5
:102600001360054B07221A60704700BF0C000020C2
:10261000D34D621014E000E010E000E0314B1A6886
:10262000314B9A420DD02F4B1A68304B9A4211D140
:102630004FF0500383F31188BFF36F8FBFF34F8FB9
:10264000FEE74FF0500383F31188BFF36F8FBFF3A2
:102650004F8FFEE700B583B0254B1A78D2B20192B6
:10266000FF221A701B78DBB28DF803309DF803301F
:1026700003F050031F4A1370072353609DF8033083
:1026800013F0800F0AD01B4A5368013B53609DF83A
:1026900003305B00DBB28DF80330EFE7154A536877
:1026A0001B0203F4E0635360019BDBB2104A13701A
:1026B000114B1A6842F470021A601A6842F07042B4
:1026C0001A60FFF795FF0D4B00221A60FFF7D6FE48
:1026D0000B4A136843F040431360FFF7BFFEFFF758
:1026E000A3FE00BF00ED00E071C20F4170C20F41B8
:1026F00000E400E05801002020ED00E00800002088
:1027000034EF00E0104A12F0070F1AD0D11D21F06B
:102710000701C1F5705313440A460C490A600020B2
:1027200048601344083B23F007038B60586018602F
:10273000981A50601360C86008614FF000434B6105
:1027400070474FF47053E8E77801002060010020E3
:1027500010B4134B1A6882421BD359685C18844228
:1027600003D1406801445960184641684418A242A8
:1027700013D10B4CA468A2420DD0526811444160A1
:102780001A6812680260984200D018605DF8044B25
:1027900070471346DEE70460F5E70260F3E700BF29
:1027A0006001002070B50446FFF77AFC394B9B6846
:1027B000BBB1384B5B691C4262D1ACB1083414F038
:1027C000070F11D024F00704083404F007035BB1AD
:1027D0004FF0500383F31188BFF36F8FBFF34F8F18
:1027E000FEE7FFF78FFFE4E7002C4BD0294B1B6976
:1027F000A34249D3274B1D6801E02B4615466A6862
:10280000A24202D22A68002AF7D1224A9268AA423A
:102810003CD01E6808362A681A606B681B1B102B98
:1028200010D9281910F0070F08D04FF0500383F388
:102830001188BFF36F8FBFF34F8FFEE743606C606B
:10284000FFF786FF6968134A13695B1A1361D26840
:10285000934201D20F4AD3600E4B5B690B436B600E
:1028600000232B60FFF7ACFC16F0070F10D04FF0E1
:10287000500383F31188BFF36F8FBFF34F8FFEE7D1
:102880000026EFE70026EDE70026EBE70026E9E764
:10289000304670BD6001002080B338B50446A0F119
:1028A000080550F8042C164949690A4208D14FF02E
:1028B000500383F31188BFF36F8FBFF34F8FFEE791
:1028C00050F8080C40B14FF0500383F31188BFF368
:1028D0006F8FBFF34F8FFEE722EA010244F8042C0A
:1028E000FFF7DEFB54F8041C054A13690B4413611F
:1028F0002846FFF72DFFFFF763FC38BD704700BF88
:10290000600100202DE9F0438DB0002400944F4B6E
:102910001A6B42F004021A631A6B02F0040200926E
:10292000009A01941A6B42F080021A631A6B02F04B
:1029300080020192019A02941A6B42F001021A631A
:102940001A6B02F001020292029A03941A6B42F08F
:1029500010021A631A6B02F010020392039A049495
:102960001A6B42F002021A631A6B02F0020204921E
:10297000049A05941A6B42F008021A631A6B02F06B
:1029800008020592059A06941A6B42F040021A63F7
:102990001B6B03F040030693069BDFF8C0902246B2
:1029A0004FF481414846FDF74BFFDFF8B4802246E3
:1029B0000C214046FDF744FF254E22464FF4F851C6
:1029C0003046FDF73DFF234F224604213846FDF7F0
:1029D00037FF4FF4005307931F4B0893099407A93F
:1029E0003046FDF73DFE4FF48143079301250895DE
:1029F00009940A9407A94846FDF732FE0C23079371
:102A0000089509940A9407A94046FDF729FE4FF45A
:102A1000F8530793089509940A9407A93046FDF7DF
:102A20001FFE04230793089509940A9407A93846C2
:102A3000FDF716FE224605212820FDF797FD2820E8
:102A4000FDF7C8FD0DB0BDE8F08300BF00380240BF
:102A500000080240000C0240000011100004024077
:102A60000018024008B50120FFF733F9FBE700002A
:102A700008B50268034B9A4200D008BDFDF752FD2D
:102A8000FBE700BF00140040FEE7000008B508485F
:102A9000084B0360032343604FF4FA738360FDF730
:102AA000E5FE00B908BDFF210348FFF7EDFF00BFB9
:102AB000C03D0020003000400832000800B591B051
:102AC0003A483B4B036042F210734360002383603B
:102AD00042F22832C26003614361FEF7C8FC00285D
:102AE00040D100230E930F930EA93048FEF778FDD6
:102AF00000283CD1602307930022089209920A9291
:102B000004230B930C920D9207A92848FEF7FAFCB8
:102B1000002831D1042207A92448FEF7F3FC00283D
:102B20002FD1082207A92148FEF7ECFC70BB0C222C
:102B300007A91E48FEF7E6FC68BB0023009301933B
:102B40000293039304934FF400520592069369464F
:102B50001648FEF76EFD18BB144800F0FBF911B0E3
:102B60005DF804FB4FF48A711248FFF78DFF40F2C5
:102B70001B111048FFF788FF40F227110D48FFF79F
:102B800083FF4FF496710B48FFF77EFF40F231113F
:102B90000848FFF779FF4FF49B710648FFF774FF71
:102BA0004FF4A1710348FFF76FFF00BF083E0020FC
:102BB000000001400832000808B50B480B4B0360C9
:102BC0004FF4E133436000238360C36003610C2250
:102BD00042618361C361FEF737FF00B908BD40F26F
:102BE000AB110348FFF750FF803D00200048004034
:102BF0000832000800B58BB02D484FF080430360C9
:102C000042F2107343600023836042F22832C260B4
:102C10000361FEF72CFC68BB00230893099308A905
:102C20002348FEF7DDFC50BB602301930022029293
:102C30000392042305930DEB03011D48FEF762FC8C
:102C400010BB04220DEB02011948FEF75BFC00BB30
:102C5000082201A91648FEF755FCF8B90C2201A973
:102C60001348FEF74FFCF0B9114800F073F90BB0B0
:102C70005DF804FB40F257110E48FFF705FF4FF4D3
:102C8000AF710C48FFF700FF40F267110948FFF7EA
:102C9000FBFE4FF4B6710748FFF7F6FE40F27111E4
:102CA0000448FFF7F1FE4FF4BB710248FFF7ECFE5A
:102CB000443E00200832000800B587B01648174B84
:102CC0000360002343608360C3600361FEF7B6FBCB
:102CD00098B906A94FF4805341F8103D0E48FEF70D
:102CE00008FA78B900230093019369460A48FEF771
:102CF00077FC60B907B05DF804FB40F28B1108481F
:102D0000FFF7C2FE40F291110548FFF7BDFE4FF4F8
:102D1000CC710348FFF7B8FECC3D00200004004012
:102D20000832000800B595B0002301932D4A116CBC
:102D300041F080511164126C02F080520192019AAC
:102D40000293294A116841F440411160126802F46B
:102D500040420292029A0A22089201220B9210210A
:102D60000C910D9202220E920F9308231093B4231C
:102D7000119312920423139308A8FDF7DDFD28BBDD
:102D8000FDF79AFD30BB0F23039302230493002326
:102D900005934FF4A05306930793052103A8FDF76D
:102DA000EBFFD8B9FEF794F8104BA3FB0030800975
:102DB000FDF71CFC0420FDF72FFC00220F214FF033
:102DC000FF30FDF7D3FB15B05DF804FBD2210848B6
:102DD000FFF75AFED9210648FFF756FEE7210448BF
:102DE000FFF752FE0038024000700040D34D6210E1
:102DF0000832000800B587B0FDF77AFBFFF792FFB5
:102E0000FFF780FDFFF742FEFFF758FEFFF7D4FE05
:102E1000FFF7F0FEFFF750FF01AC074D0FCD0FC4D9
:102E20002B682360002101A8FEF739FF034B1860CF
:102E3000FEF730FFFEE700BFD43100087C3D0020E4
:102E400010B582B000240094214B5A6C42F48042A9
:102E50005A645A6C02F480420092009A01941A6CEF
:102E600042F080521A641B6C03F080530193019B63
:102E70000320FDF769FB224621466FF00B00FDF7AA
:102E800075FB224621466FF00A00FDF76FFB2246D4
:102E900021466FF00900FDF769FB224621466FF0DD
:102EA0000400FDF763FB224621466FF00300FDF7A7
:102EB0005DFB22460F216FF00100FDF757FB224614
:102EC0000F214FF0FF30FDF751FB02B010BD00BFE6
:102ED0000038024082B00368104A934204D0B3F134
:102EE000804F0ED002B07047002300930C4B5A6CF9
:102EF00042F001025A645B6C03F001030093009BF3
:102F0000F0E700230193064B1A6C42F001021A64A9
:102F10001B6C03F001030193019BE3E700000140F8
:102F2000003802400268094B9A4200D0704782B0D4
:102F300000230193064B1A6C42F002021A641B6CC8
:102F400003F002030193019B02B0704700040040AC
:102F50000038024000B587B00368134A934205D099
:102F6000B3F1804F11D007B05DF804FB4FF4D443A8
:102F700001930223029300220392049301230593F9
:102F800001A90A48FDF76CFBEDE70F23019302232B
:102F900002930022039204930123059301A904489C
:102FA000FDF75EFBDFE700BF0000014000100240BC
:102FB000000002400268164B9A4200D0704710B5DC
:102FC00086B00024009403F5F8331A6C42F4802292
:102FD0001A641B6C03F480230093009B4FF440732E
:102FE00001930223029301230393032304930723F2
:102FF000059301A90748FDF733FB22460521272049
:10300000FDF7B4FA2720FDF7E5FA06B010BD00BFC2
:1030100000480040000C024010B588B00022014674
:103020003720FDF7A3FA3720FDF7D4FA00240194E6
:10303000144B1A6C42F020021A641B6C03F020033C
:103040000193019B02A903A8FDF768FFFDF746FF66
:1030500043000D48A0FB03239B0C013B0B480C4A8B
:10306000026040F2E732C260436004618460FEF7B0
:10307000E5F910B1012008B010BD0448FEF72DF8A5
:10308000F9E700BF0038024083DE1B43803E00208A
:10309000001400407047FEE7FEE7FEE7FEE77047DA
:1030A00008B5FEF71FFE08BD08B50248FEF754FD3F
:1030B00008BD00BF803D002008B54FF40050FDF76B
:1030C000C7FB08BD08B50248FEF79BF808BD00BF66
:1030D000803E00200F49D1F8883043F47003C1F8D6
:1030E00088300D4B1A6842F001021A600020986087
:1030F0001A6822F0847222F480321A60074A5A60F9
:103100001A6822F480221A60D8604FF000638B6046
:10311000704700BF00ED00E000380240103000248E
:10312000DFF834D0002103E00C4B5B5843500431EE
:103130000B480C4B42189A42F6D30B4A02E000238C
:1031400042F8043B094B9A42F9D3FFF7C3FF00F062
:1031500011F8FFF74FFE70470000032034320008DB
:10316000000000201000002010000020BC3E0020C5
:10317000FEE7000070B50D4E0D4CA41BA4100025F9
:10318000A54209D10B4E0C4C00F018F8A41BA4105A
:103190000025A54205D170BD56F825309847013568
:1031A000EEE756F8253098470135F2E72C32000853
:1031B0002C3200082C32000830320008F8B500BF6D
:1031C000F8BC08BC9E467047F8B500BFF8BC08BC08
:0431D0009E46704760
:1031D40018320008652A0008000000000000000002
:1031E4008000000000000000000000000102030451
:1031F40006070809000000000102030449444C4585
:10320400000000002E2E2F5372632F6D61696E2E05
:103214006300000064656661756C745461736B00CF
:08322400FCCFFF7F0100000058
:04322C00D5010008C0
:04323000B1010008E0
:103234000100000010000000AAAAAAAA0024F400B9
:04000005080031219D
:00000001FF
